:020000040000FA
:0600000000EF10F01200F9
:06002A000100422000006D
:08003000C000000013000000F5
:08003800D9CFE6FFE1CFD9FFAB
:10004000FE0EDB500001C011C06FC0C080FFE55242
:10005000E7CFD9FF1200D9CFE6FFE1CFD9FFFE0EDF
:10006000DB28E86C0001C015C06FC0C080FFE552FE
:10007000E7CFD9FF1200D9CFE6FFE1CFD9FFFE0EBF
:10008000DB500001C111C16FC1C081FFE552E7CF54
:10009000D9FF1200D9CFE6FFE1CFD9FFFE0EDB2852
:1000A000E86C0001C115C16FC1C081FFE552E7CF07
:1000B000D9FF1200D9CFE6FFE1CFD9FFFE0EDB500A
:1000C0000001C211C26FC2C082FFE552E7CFD9FF63
:1000D0001200D9CFE6FFE1CFD9FFFE0EDB28E86C96
:1000E0000001C215C26FC2C082FFE552E7CFD9FF3F
:1000F0001200D9CFE6FFE1CFD9FF050EE1268150EE
:10010000100B01E0010EE76E040EE7CFDBFF0001EC
:10011000010ECB1901E1CC5106E1040EDB5003E1E5
:10012000F36AF46A35D0DE6ADE6ADE6ADD6ADD52C1
:10013000DD528150100B01E0010EE76E040EE7CF97
:10014000DBFFDB501FE1D9CFE9FFDACFEAFFEE2A70
:10015000000EEE22EE22EE22D9CFE9FFDACFEAFF3F
:10016000D880E80EEE54030EEE54000EEE54000E4E
:10017000EE5407E2010E0001CB6FCC6BF36EF46A14
:1001800007D0D7D70001CB6BCC6BF36AF46A00D0F1
:10019000050EE15C02E2E16AE552E16EE552E7CF6D
:1001A000D9FF1200D9CFE6FFE1CFD9FF050EE12636
:1001B0008150200B01E0010EE76E040EE7CFDBFF5C
:1001C0000001010ECD1901E1CE5106E1040EDB5014
:1001D00003E1F36AF46A35D0DE6ADE6ADE6ADD6A5C
:1001E000DD52DD528150200B01E0010EE76E040E5E
:1001F000E7CFDBFFDB501FE1D9CFE9FFDACFEAFF22
:10020000EE2A000EEE22EE22EE22D9CFE9FFDACF5F
:10021000EAFFD880E80EEE54030EEE54000EEE54C2
:10022000000EEE5407E2010E0001CD6FCE6BF36EAF
:10023000F46A07D0D7D70001CD6BCE6BF36AF46AAE
:1002400000D0050EE15C02E2E16AE552E16EE552A2
:10025000E7CFD9FF1200D9CFE6FFE1CFD9FF020ED9
:10026000E1268150400B01E0010EDF6E8150800BD2
:1002700001E0010EE76E010EE7CFDBFFDF5003E088
:10028000010EDB5005E0010EF36EF46A04D003D0DA
:10029000F36AF46A00D0020EE15C02E2E16AE55220
:1002A000E16EE552E7CFD9FF1200D9CFE6FFE1CFEB
:1002B000D9FFFD0EDB5050E1FE0EDB50040A3AE0A0
:1002C000070A27E0010A14E0030A01E044D0C5C090
:1002D000E6FFC1DEE552C6C0E6FFAEDEE552C7C0AE
:1002E000E6FFAADEE552C8C0E6FFA6DEE55233D03F
:1002F000C5C0E6FFA1DEE552C6C0E6FFACDEE552B2
:10030000C7C0E6FF99DEE552C8C0E6FF95DEE552BC
:1003100022D0C5C0E6FF90DEE552C6C0E6FF8CDE07
:10032000E552C7C0E6FF97DEE552C8C0E6FF84DEAF
:10033000E55211D0C5C0E6FF7FDEE552C6C0E6FF3C
:100340007BDEE552C7C0E6FF77DEE552C8C0E6FFB8
:1003500082DEE55200D010D0C5C0E6FF6DDEE5526A
:10036000C6C0E6FF69DEE552C7C0E6FF65DEE552BE
:10037000C8C0E6FF61DEE552E552E7CFD9FF1200C3
:10038000D9CFE6FFE1CFD9FFFE0EDB0405E1C8C0FF
:10039000E6FF90DEE55204D0C8C0E6FF9ADEE552E3
:1003A000E552E7CFD9FF1200C2B209D0C3CFD1F0D6
:1003B000C4CFD2F0FF0E0001D117030ED2170001F7
:1003C000CF2B000ED0233F0ED880CF55000ED05536
:1003D00003E2CF6BD06BC282D1C0F3FFD2C0F4FF77
:1003E00000D012000000000000000000000000002B
:1003F0000000000000000000000000D01200D9CF73
:10040000E6FFE1CFD9FF0C0EE126FD0EDB0406E18D
:10041000030EDF6EDE52020EDD6E06D0000000001D
:10042000010EDF6E010EDB6A010EDB50E76E020E7D
:10043000E7CFDBFFFE0EDBA006D000000000040EBD
:10044000DFCFDBFF06D0010EDB50E76E040EE7CFF7
:10045000DBFFFE0EDBA206D000000000050EDFCFA2
:10046000DBFF06D0010EDB50E76E050EE7CFDBFFAA
:10047000FE0EDBA406D000000000060EDFCFDBFF7F
:1004800006D0010EDB50E76E060EE7CFDBFFFE0E57
:10049000DBA606D000000000070EDFCFDBFF06D092
:1004A000010EDB50E76E070EE7CFDBFFFE0EDBA889
:1004B00006D000000000080EDFCFDBFF06D0010EE3
:1004C000DB50E76E080EE7CFDBFFFE0EDBAA06D09F
:1004D00000000000090EDFCFDBFF06D0010EDB506D
:1004E000E76E090EE7CFDBFFFE0EDBAC06D00000A7
:1004F00000000A0EDFCFDBFF06D0010EDB50E76EF7
:100500000A0EE7CFDBFFFE0EDBCF14F0156A14BE38
:1005100015681450800B06E0000000000B0EDFCFC2
:10052000DBFF06D0010EDB50E76E0B0EE7CFDBFFE3
:10053000030EDFCFDBFF020EDB50806E53DF040EB5
:10054000DB50806E4FDF050EDB50806E4BDF060EFA
:10055000DB50806E47DF070EDB50806E43DF080EF6
:10056000DB50806E3FDF090EDB50806E3BDF0A0EF2
:10057000DB50806E37DF0B0EDB50806E33DF030EF7
:10058000DB50806E2FDF030EDB50806E0C0EE15CC3
:1005900002E2E16AE552E16EE552E7CFD9FF1200CF
:1005A000D9CFE6FFE1CFD9FF020EE126FE0EDB0434
:1005B00006E1030EDF6EDE52020EDD6E03D0010E89
:1005C000DF6EDB6A010EDB50806E2C0EE66E0EECE9
:1005D00010F0E552DF50806E040EE66E0EEC10F067
:1005E000E552020EE15C02E2E16AE552E16EE5529B
:1005F000E7CFD9FF1200D9CFE6FFE1CFD9FF030E35
:10060000E126010EF36E020EF3CFDBFF020EDB508C
:1006100054E0C4C0E6FF10DDE552640EE66EE9EC7E
:100620000FF0E552640EE66EE9EC0FF0E552640E51
:10063000E66EE9EC0FF0E552640EE66EE9EC0FF0C1
:10064000E552FE0EDB50000829E2DE6ADD6ADECFED
:1006500014F0DDCF15F0FE0EDB50000115AE02D018
:10066000D89003D0145C000E155817E2C4C0E6FF02
:10067000F2DCE552640EE66EE9EC0FF0E552C4C020
:10068000E6FFDADCE552640EE66EE9EC0FF0E552C7
:10069000DF2A010E01E3DB2ADAD709D0C4C0E6FF66
:1006A000DADCE5520A0EE66EE9EC0FF0E552FD0EDB
:1006B000DB5002E1020EDB6AA9D7030EE15C02E225
:1006C000E16AE552E16EE552E7CFD9FF1200D9CFDA
:1006D000E6FFE1CFD9FFA69EA69CA684FE0EDB50C6
:1006E000A96EFD0EDB50A86E550EA76EAA0EA76E62
:1006F000A682A1A8FED7A198F292E552E7CFD9FF32
:100700001200D9CFE6FFE1CFD9FFE652A69EA69C04
:10071000FE0EDB50A96EA680A850DF6EDF5000D021
:10072000E552E552E7CFD9FF1200D9CFE6FFE1CF7E
:10073000D9FF2B0EE126190EDB6A1B0EDB6A1C0E9D
:10074000DB6AF00EF36E1D0EF3CFDBFF410EF36E8E
:100750001E0EF3CFDBFF270EDB6A280EDB6A7A0E54
:10076000F36E290EF3CFDBFF440EF36E2A0EF3CFA8
:10077000DBFF550EF36E110EF3CFDBFFD950020FE6
:10078000E96EDACFEAFF000EEE6E010EED6E0F0E8F
:10079000DB6A140EDB6ADF6A00013E0EC06F3E0E9C
:1007A000806E0001C16B170EDB6A180EDB6AC10E8A
:1007B000926EC10E806E806AFED7C294C296C298B5
:1007C000C29AC280C292C190C182C184C186C090C7
:1007D000C082C094C096C098C08AC08E93689F0E95
:1007E000946EC4C0E6FF37DCE552010EE66E0A0ED9
:1007F000E66E01DFE552E552170EE66ECDEC0FF026
:10080000E552000EE66EE66AB1EC0FF0E552E552F5
:10081000640EE66EE9EC0FF0E552640EE66EE9EC6C
:100820000FF0E552640EE66EE9EC0FF0E552640E4F
:10083000E66EE9EC0FF0E552020EE66E2BEC00F0EE
:10084000E552640EE66EE9EC0FF0E552640EE66EDA
:10085000E9EC0FF0E552640EE66EE9EC0FF0E552BC
:10086000640EE66EE9EC0FF0E552020EE66E1CEC4B
:1008700000F0E552640EE66EE9EC0FF0E552640E0E
:10088000E66EE9EC0FF0E552640EE66EE9EC0FF06F
:10089000E552640EE66EE9EC0FF0E552040EE66EEA
:1008A0002BEC00F0E552640EE66EE9EC0FF0E55239
:1008B000640EE66EE9EC0FF0E552640EE66EE9ECCC
:1008C0000FF0E552640EE66EE9EC0FF0E552040E0F
:1008D000E66E1CEC00F0E552640EE66EE9EC0FF0FB
:1008E000E552640EE66EE9EC0FF0E552640EE66E3A
:1008F000E9EC0FF0E552640EE66EE9EC0FF0E5521C
:10090000080EE66E2BEC00F0E552640EE66EE9ECA4
:100910000FF0E552640EE66EE9EC0FF0E552640E5E
:10092000E66EE9EC0FF0E552640EE66EE9EC0FF0CE
:10093000E552080EE66E1CEC00F0E552640EE66E21
:10094000E9EC0FF0E552640EE66EE9EC0FF0E552CB
:10095000640EE66EE9EC0FF0E552640EE66EE9EC2B
:100960000FF0E552100EE66E2BEC00F0E552640E2F
:10097000E66EE9EC0FF0E552640EE66EE9EC0FF07E
:10098000E552640EE66EE9EC0FF0E552640EE66E99
:10099000E9EC0FF0E552100EE66E1CEC00F0E552AB
:1009A000640EE66EE9EC0FF0E552640EE66EE9ECDB
:1009B0000FF0E552640EE66EE9EC0FF0E552640EBE
:1009C000E66EE9EC0FF0E552200EE66E2BEC00F03F
:1009D000E552640EE66EE9EC0FF0E552640EE66E49
:1009E000E9EC0FF0E552640EE66EE9EC0FF0E5522B
:1009F000640EE66EE9EC0FF0E552200EE66E1CEC9C
:100A000000F0E552120EDB6A120EDBCFE6FF79DE54
:100A1000E552E76E100EE7CFDBFF100EDB50E76EFE
:100A2000190EE7CFDBFFC0DC1A0EF3CFDBFF1A0E87
:100A3000DBCF18F018C009F062EC0CF007C014F01E
:100A400008C015F009C016F00AC017F0270EDBCF5A
:100A50001DF0280EDBCF1EF0290EDBCF1FF02A0E73
:100A6000DBCF20F01A0EDB50256E266A000ED880F0
:100A70002556040E265625C008F026C009F075EC50
:100A80000CF007C021F008C022F009C023F00AC012
:100A900024F021C00CF022C00DF023C00EF024C0C1
:100AA0000FF01DC007F01EC008F01FC009F020C0E5
:100AB0000AF088EC0CF007C019F008C01AF009C061
:100AC0001BF00AC01CF019C00CF01AC00DF01BC0BE
:100AD0000EF01CC00FF014C007F015C008F016C0CF
:100AE00009F017C00AF0DBEC0CF0230E07C0DBFFA7
:100AF000240E08C0DBFF250E09C0DBFF260E0AC04E
:100B0000DBFF230EDBCF1CF0240EDBCF1DF0250E08
:100B1000DBCF1EF0260EDBCF1FF00C6A0D6AC80E6D
:100B20000E6E420E0F6E1CC007F01DC008F01EC0F6
:100B300009F01FC00AF048EC0DF007C018F008C01B
:100B400019F009C01AF00AC01BF03F0E0C6E350EEA
:100B50000D6E260E0E6E400E0F6E18C007F019C0F7
:100B600008F01AC009F01BC00AF0DBEC0CF007C05B
:100B700014F008C015F009C016F00AC017F0C70E2F
:100B80000C6E4B0E0D6E370E0E6E3F0E0F6E14C0B8
:100B900007F015C008F016C009F017C00AF0DBEC2A
:100BA0000CF01F0E07C0DBFF200E08C0DBFF210E7C
:100BB00009C0DBFF220E0AC0DBFF1F0EDBCF14F0E3
:100BC000200EDBCF15F0210EDBCF16F0220EDBCF8F
:100BD00017F00C6A0D6AC80E0E6E410E0F6E14C02F
:100BE00007F015C008F016C009F017C00AF0FDECB8
:100BF0000DF0010A05E1010EE66EC0EC01F0E552D0
:100C00001F0EDBCF14F0200EDBCF15F0210EDBCF53
:100C100016F0220EDBCF17F00C6A0D6AC00E0E6EB6
:100C2000410E0F6E14C007F015C008F016C009F091
:100C300017C00AF006EC0EF0010A04E1E66AC0EC07
:100C400001F0E55279EC00F0F3CF14F0F4CF15F099
:100C50001450151035E0190EDB2A190EDBCF14F0F5
:100C6000040EE76E1418E8AE02D0143403D0E75037
:100C7000D880145405E2040EF36E190EF3CFDBFF97
:100C8000120EDB6A190EDB50E76E100EE7CFDBFFAA
:100C9000100EDBCFE6FF120EDBCFE6FF18DDE552CC
:100CA000E552E66A190EDBCFE6FF55EC01F0E5529E
:100CB000E552000EE66EE66AB1EC0FF0E552E55241
:100CC000D2EC00F0F3CF14F0F4CF15F0145015105F
:100CD00034E0190EDB06190EDBCF14F0010EE76EBF
:100CE0001418E8AE02D0E73402D0E750145C05E2F5
:100CF000010EF36E190EF3CFDBFF120EDB6A190E35
:100D0000DB50E76E100EE7CFDBFF100EDBCFE6FF08
:100D1000120EDBCFE6FFDBDCE552E552E66A190E88
:100D2000DBCFE6FF55EC01F0E552E552000EE66E32
:100D3000E66AB1EC0FF0E552E55292EC0FF0150EB9
:100D4000F3CFDBFF160EF4CFDBFFD950150FE96EA2
:100D5000DACFEAFF4B0ED880EE544C0EED5410E281
:100D6000000EE66EE66AB1EC0FF0E552E552010EB8
:100D7000E66E190EDBCFE6FF55EC01F0E552E552C9
:100D80002BEC01F0F3CF14F0F4CF15F01450151044
:100D90000FE0000EE66EE66AB1EC0FF0E552E552A8
:100DA000E66A190EDBCFE6FF55EC01F0E552E5529D
:100DB0003AD679EC00F0F3CF14F0F4CF15F01450DC
:100DC000151005E0C5C0E6FF2BEC00F0E552D2ECB3
:100DD00000F0F3CF14F0F4CF15F01450151005E027
:100DE000C5C0E6FF1CEC00F0E552E3D779EC00F05B
:100DF000F3CF14F0F4CF15F01450151006E0C5C071
:100E0000E6FF2BEC00F0E55205D0C5C0E6FF1CEC78
:100E100000F0E552EBD70D0EDB6A0E0EDB6A0D0E0D
:100E2000DBCF14F00E0EDBCF15F0000E145C020EBB
:100E3000155836E20D0EDBCF14F00E0EDBCF15F099
:100E4000000E145C010E155807E20D0EDB50E76E24
:100E5000100EE7CFDBFF0DD00D0EDBCF14F00E0E22
:100E6000DBCF15F0000E145E010E155A100E14C0E3
:100E7000DBFF0D0EDBCF14F00E0EDBCF15F0020EF4
:100E8000DB501424E96E030EDB501520EA6E100EC1
:100E9000DBCFEFFF0D0EDB2A0E0E01E3DB2ABFD7FF
:100EA0000D0EDB6A0E0EDB6A0D0EDBCF14F00E0E9C
:100EB000DBCF15F0000E145C020E155842E20D0E49
:100EC000DBCF14F00E0EDBCF15F0000E145C010E1C
:100ED000155807E20D0EDB50E76E100EE7CFDBFF73
:100EE0000DD00D0EDBCF14F00E0EDBCF15F0000E83
:100EF000145E010E155A100E14C0DBFF0D0EDBCF71
:100F000015F00E0EDBCF16F0020EDB501524E96E45
:100F1000030EDB501620EA6EEFCF14F0100EDB50FC
:100F2000145C09E0010EE66E0D0EDBCFE6FFFBEC74
:100F300002F0E552E5520D0EDB2A0E0E01E3DB2A2C
:100F4000B3D70D0EDB6A0E0EDB6A0D0EDBCF14F08D
:100F50000E0EDBCF15F0000E145C020E155815E2D4
:100F60000D0EDBCF14F00E0EDBCF15F0020EDB50B2
:100F70001424E96E030EDB501520EA6EEF6A0D0EA5
:100F8000DB2A0E0E01E3DB2AE0D70B0EDB6A020E32
:100F9000F36E0C0EF3CFDBFF120EDB6A120EDBCF0B
:100FA000E6FF81EC03F0E552E76E100EE7CFDBFFC2
:100FB000100EDB50DF6EDF50030A07E0020A04E088
:100FC000010A01E084D084D083D0010EF36E120EAA
:100FD000F3CFDBFF120EDBCFE6FF81EC03F0E5522F
:100FE000E76E100EE7CFDBFF100EDB50E66ED95038
:100FF000040FE96EDACFEAFFE552E750EE6EED6AD4
:10100000020EF36E120EF3CFDBFF120EDBCFE6FF04
:1010100081EC03F0E552E76E100EE7CFDBFF100E18
:10102000DB50E76E130EE7CFDBFF0D0EDB6A0E0E13
:10103000DB6A0D0EDBCF14F00E0EDBCF15F0FD0ECC
:10104000145C000E15583BE2030EE76E0D0EDBCF6D
:1010500014F00E0EDBCF15F0E7501426000E15220B
:10106000120E14C0DBFF120EDBCFE6FF81EC03F0A3
:10107000E552E76E100EE7CFDBFF0D0EDBCF14F06D
:101080000E0EDBCF15F0000E145C020E155811E2A7
:101090000D0EDBCF14F00E0EDBCF15F0020EDB5081
:1010A0001424E96E030EDB501520EA6E100EDBCF20
:1010B000EFFF0D0EDB2A0E0E01E3DB2ABAD7FD0E81
:1010C000F36E0B0EF3CFDBFF0C0EDB6A01D0DF6A91
:1010D000E66A020EE66EFBEC02F0E552E552170EF0
:1010E000E66ECDEC0FF0E552000EE66EE66AB1EC6E
:1010F0000FF0E552E552140EE66EE66A3C0EE66E1F
:1011000039EC0FF0E552E552E552AB98AB88100E82
:10111000DB6A010EDB6A030E806E060EDB6A070EC9
:10112000DB6A010EF36E0F0EF3CFDBFF000100014F
:10113000DD51080B03E1AB50020B0CE00001DD9721
:10114000AB98AB88E66A030EE66EFBEC02F0E55264
:10115000E552ECD7100EDB6A9EAACDD273EC0FF0ED
:10116000E76E100EE7CFDBFF100EDB504B0A21E0DD
:10117000010A19E0030A11E00D0A09E0140A01E06E
:101180001ED0010EDF6E010EDFCFDBFF18D0020E86
:10119000DF6E010EDFCFDBFF12D0030EDF6E010E1C
:1011A000DFCFDBFF0CD0030EDF6E010EDFCFDBFFE6
:1011B00006D0030EDF6E010EDFCFDBFF00D0100E76
:1011C000DB50530A01E1D7D1180A01E16CD1010AC1
:1011D00001E119D1030A01E1CDD00D0A55E0140A4D
:1011E00001E089D20F0EDBCFE6FFD0EC02F0E55232
:1011F0000F0EDB0403E10F0EDB6A05D0010EF36E68
:101200000F0EF3CFDBFF9EAAFED773EC0FF0E76E55
:101210000A0EE7CFDBFF0D0EDB6A0E0EDB6A0D0E4A
:10122000DBCF14F00E0EDBCF15F00A0EDB50166E7E
:10123000176A1650145C1750155825E29EBA02D052
:101240000000FCD773EC0FF0E76E100EE7CFDBFF6A
:101250000F0EDBCFE6FF100EDBCFE6FFFFEC01F059
:10126000E552E5520F0EDB0403E10F0EDB6A05D0F9
:10127000010EF36E0F0EF3CFDBFF0D0EDB2A0E0E09
:1012800001E3DB2ACCD737D20F0EDBCFE6FFD0EC61
:1012900002F0E5520F0EDB0403E10F0EDB6A05D00E
:1012A000010EF36E0F0EF3CFDBFF9EAAFED773EC99
:1012B0000FF0E76E0A0EE7CFDBFF0A0EDB50146E6D
:1012C000156A14C015F0146A040E14C0DBFF050E75
:1012D00015C0DBFF9EAAFED773EC0FF0E76E0A0E77
:1012E000E7CFDBFF0A0EDB50146E156AD950040FEE
:1012F000E96EDACFEAFF1450EE261550ED220D0EFE
:10130000DB6A0E0EDB6A0D0EDBCF14F00E0EDBCFA8
:1013100015F0040EDBCF16F0050EDBCF17F01650DC
:10132000145C1750155825E29EBA02D00000FCD775
:1013300073EC0FF0E76E100EE7CFDBFF0F0EDBCF85
:10134000E6FF100EDBCFE6FFFFEC01F0E552E552C1
:101350000F0EDB0403E10F0EDB6A05D0010EF36E06
:101360000F0EF3CFDBFF0D0EDB2A0E0E01E3DB2A9F
:10137000CAD7C1D19EBA02D00000FCD773EC0FF0DF
:10138000E76E0A0EE7CFDBFF9EAAFED773EC0FF0E5
:10139000E76E100EE7CFDBFF0A0EDB50146E156A06
:1013A000D890155004E6000E145C020E155810E299
:1013B0000A0EDB50E76E020EDBCFE9FF030EDBCF38
:1013C000EAFFE750E926000EEA22100EDBCFEFFF1E
:1013D0000A0EDB50E76E020EDBCFE9FF030EDBCF18
:1013E000EAFFE750E926000EEA22EFCF14F0100ED4
:1013F000DB50145C07E0E66A0A0EE66EFBEC02F0D6
:10140000E552E55278D19EAAFED773EC0FF0146E28
:10141000156A000E1426010E1522080E14C0DBFFFB
:10142000090E15C0DBFF9EAAFED773EC0FF0E76E26
:10143000100EE7CFDBFF080EDBCF14F0090EDBCF79
:1014400015F0000E145C020E155811E2080EDBCFE9
:1014500014F0090EDBCF15F0020EDB501424E96EF8
:10146000030EDB501520EA6E100EDBCFEFFF080EE7
:10147000DBCF15F0090EDBCF16F0020EDB50152482
:10148000E96E030EDB501620EA6EEFCF14F0100E5B
:10149000DB50145C07E0E66A0A0EE66EFBEC02F035
:1014A000E552E55228D1060EDB6A070EDB6A140E00
:1014B000DB6A9EAAFED773EC0FF0146E156A14C097
:1014C00015F0146A080E14C0DBFF090E15C0DBFF0F
:1014D0009EAAFED773EC0FF0146E156AD950080F50
:1014E000E96EDACFEAFF1450EE261550ED22D950FE
:1014F000080FE96EDACFEAFF000ED880EE54020E34
:10150000ED5407E2080EDB6A020EF36E090EF3CF0C
:10151000DBFF080EDBCF08F0090EDBCF09F0040E6D
:1015200008C0DBFF050E09C0DBFF0B0EDBCF14F09C
:101530000C0EDBCF15F0040EDBCF16F0050EDBCF63
:1015400017F01650145C175015580CE2040EDBCF40
:1015500008F0050EDBCF09F00B0E08C0DBFF0C0E08
:1015600009C0DBFF9EAAFED773EC0FF0E76E130EE7
:10157000E7CFDBFFC0D0030EF36E010EDBCFF4FF2D
:10158000F350F45C0EE2120EDB6A100EDB6A100EF2
:10159000DBCFE6FF120EDBCFE6FF67EC03F0E55290
:1015A000E552010EDB50030801E09DD0120EDB6A0C
:1015B000010EDB50E76E100EE7CFDBFF100EDBCF26
:1015C000E6FF120EDBCFE6FF67EC03F0E552E552D3
:1015D000010EF36E120EF3CFDBFFD950040FE96E4C
:1015E000DACFEAFFFD0ED880EE54000EED5406E28D
:1015F000FD0EF36E100EF3CFDBFF06D0040EDB50B2
:10160000E76E100EE7CFDBFF100EDBCFE6FF120E0A
:10161000DBCFE6FF67EC03F0E552E552020EF36E16
:10162000120EF3CFDBFF130EDB50E76E100EE7CF89
:10163000DBFF100EDBCFE6FF120EDBCFE6FF67EC21
:1016400003F0E552E5520D0EDB6A0E0EDB6A0D0E5D
:10165000DBCF14F00E0EDBCF15F0FD0E145C000E88
:1016600015583EE2030EE76E0D0EDBCF14F00E0EA2
:10167000DBCF15F0E7501426000E1522120E14C011
:10168000DBFF0D0EDBCF14F00E0EDBCF15F0000EDE
:10169000145C020E155812E20D0EDBCF14F00E0E84
:1016A000DBCF15F0020EDB501424E96E030EDB5085
:1016B0001520EA6E100EEFCFDBFF02D0100EDB6AB2
:1016C000100EDBCFE6FF120EDBCFE6FF67EC03F078
:1016D000E552E5520D0EDB2A0E0E01E3DB2AB7D7E9
:1016E000010EDB50DF6EE66A020EE66EFBEC02F0E6
:1016F000E552E55200D0030EDF5C01E0D8D0060EC3
:10170000DBCF14F0070EDBCF15F0040EDBCF16F0A5
:10171000050EDBCF17F01650145C1750155804E374
:10172000060EDB6A070EDB6A130EDB5003E1140EB4
:10173000DB6A3ED092EC0FF0150EF3CFDBFF160EF6
:10174000F4CFDBFFD950150FE96EDACFEAFFA10E17
:10175000D880EE54070EED540CE2170EDB2A180E5B
:1017600001E3DB2A000EE66EE66AB1EC0FF0E5520B
:10177000E552D950060FE96EDACFEAFFEE50ED10D0
:1017800017E1170EDBCF14F0180EDBCF15F0130E98
:10179000DBCF16F0176A16BE17681450165C15508A
:1017A000175806E2170EDB6A180EDB6A140EDB2AE6
:1017B000060EDBCF18F0070EDBCF19F0140EDBCFCF
:1017C00016F0176A16BE176816C008F017C009F0A1
:1017D000040EDBCF0DF0050EDBCF0EF0DFEC0DF0CD
:1017E00006501824146E07501920156E080E14C0E8
:1017F000DBFF090E15C0DBFF080EDBCF14F0090E6E
:10180000DBCF15F00B0EDBCF16F00C0EDBCF17F095
:101810001650145C1750155815E3060EDB6A070EB8
:10182000DB6A140EDB6A080EDB6A090EDB6A000E47
:10183000E66EE66AB1EC0FF0E552E552170EDB6A90
:10184000180EDB6AD950060FE96EDACFEAFFEE50C8
:10185000ED1006E10F0EDBCFE6FFD0EC02F0E55213
:101860000F0EDBCFE6FF080EDBCF14F0090EDBCF47
:1018700015F0020EDB501424E96E030EDB50152028
:10188000EA6EEF50E66EFFEC01F0E552E552060E0F
:10189000DB2A070E01E3DB2A0F0EDB0403E10F0E48
:1018A000DB6A05D0010EF36E0F0EF3CFDBFF3ED4E3
:1018B0002B0EE15C02E2E16AE552E16EE552E7CF10
:0418C000D9FF12003A
:0C18C400019E05D0019E09AE02D0096C07
:1018D000018E09C003F0026A136A126A860E046E52
:1018E000056A80EF0EF0019E08D0019E09AE05D07A
:1018F000086C091EE86A0922018E09C003F008C0BD
:1019000002F0136A126A8E0E046E056A80EF0EF002
:10191000016ABCEC0EF0D4EC0EF001B664EF0EF0F0
:1019200001A205D001BA64EF0EF06BEF0EF001BA20
:1019300077EF0EF001A005D001B864EF0EF077EF5D
:101940000EF001B86BEF0EF0056A7F0E0A24046EEC
:10195000E86A05220F50045EE86A055A1A0E106EF6
:101960000A6A126A136A026A036A0C50075E0D5013
:10197000085A0E50095A000E0A5A09E70C50072659
:101980000D5008220E500922000E0A2201D0128AA0
:10199000D8900736083609360A36D89012361336EC
:1019A00002360336102EE1D7095008100710D8A4CC
:1019B000128A80EF0EF0016ABCEC0EF0D4EC0EF04F
:1019C00001B664EF0EF001A205D001B864EF0EF08D
:1019D0006BEF0EF001AA05D001B064EF0EF06BEFD3
:1019E0000EF001B002D001A802D077EF0EF0056A28
:1019F0000F500A24046EE86A05227E0E045EE86A2F
:101A0000055A126A136A026A036A0E500902F4CF79
:101A100003F0F3CF02F00D500902F3501326F450F7
:101A20000222000E03220E500802F3501326F45037
:101A30000222000E03220C500902F3501226F45029
:101A40001322000E022203220D500802F350122628
:101A5000F4501322000E022203220E500702F3500C
:101A60001226F4501322000E022203220C50080208
:101A7000F4501226000E1322022203220D500702F8
:101A8000F4501226000E13220222032280EF0EF0E1
:101A90000F7E016ABCEC0EF0D4EC0EF001B664EFE0
:101AA0000EF001A20AD001AA03D001BE64EF0EF02D
:101AB00001A470EF0EF06DEF0EF001AA05D001AC9D
:101AC00070EF0EF06DEF0EF001A00AD001A808D063
:101AD00001BE04D001A402D079EF0EF07DEF0EF02C
:101AE000126A056A0F500A5C116E10E307C013F00A
:101AF00008C002F009C003F00AC010F00CC007F0E3
:101B00000DC008F00EC009F0013A09D00CC013F066
:101B10000DC002F00EC003F00FC010F0116C019E5A
:101B200001BC018E10C004F001B0ACEF0EF01A0E33
:101B30001160ACEF0EF0046A0A6A01A408D0076CC9
:101B4000081E091E0A1EE86A082209220A2201ACA0
:101B500008D0136C021E031E041EE86A0222032230
:101B60000422066A115207E00A34093208320732A9
:101B70000632112EF9D707501326085002220950B9
:101B800003220A50042206C012F0019E04AE0BD0BC
:101B9000126C131E021E031E041EE86A1322022288
:101BA00003220422018E04A006D0D8800332023220
:101BB00013321232102A10C004F080EF0EF008C069
:101BC00012F008500D02F4CF07F0F3CF06F00950E1
:101BD0000E02F4CF09F0F3CF08F00D02F350072600
:101BE000F4500822E86A092212500E02F350072628
:101BF000F4500822E86A0922000C0FEC0EF001B63E
:101C0000000C01B0000C01B4000C010C0FEC0EF044
:101C100001B6000C01B0000C01A4000C010C016A1B
:101C2000BCEC0EF0D4EC0EF001B6120001AE08D000
:101C300001A004D001A802D001801200019012007E
:101C40000F500A5C0BE10E50095C08E10D50085C76
:101C500005E10C50075C02E101801200D8A002D01F
:101C6000018E10D00A500FC00AF00F6E09500EC03E
:101C700009F00E6E08500DC008F00D6E07500CC034
:101C800007F00C6E0F500A5C10E0FF0F09E00190A6
:101C900001B403D001AE0184120001AE0194120020
:101CA0000F2AD8900E320D320C320C50075E0D50B8
:101CB000085A0E50095A09BEEAD7D8900736083696
:101CC00009360A2EF8D7C8D77F0E0A6EFF0E096EA6
:101CD000086E076E12007F0E01BEFF0E0A6E02D064
:101CE0007F0E0A6E800E096E086A076AF3D701AE8E
:101CF00004D0800E0A6E096AF7D70A6A096AF4D717
:101D00000350021013101210F8E005BEF0D703BE06
:101D10000CD004500510EBE0D89012361336023682
:101D200003360406D8A00506F2D70550D4E10428EE
:101D3000D2E012AE11D07F0E121402E113A00CD02B
:101D4000132AE86A0222032207E3D8800332023210
:101D50001332042A0428BFE00450C9E013C007F07E
:101D600002C008F00334096E04300A6E09320A9E7C
:101D700001BE0A8E6AEF0EF009360A3602E30184CC
:101D8000017E06E101800A6A096A086A076A120090
:101D90000A2803E0D88009321200D890093202E103
:101DA00001821200018612000E360F3602E3018C0A
:101DB000017E06E101880F6A0E6A0D6A0C6A120044
:101DC0000F2803E0D8800E321200D8900E32EAE1DC
:041DD000018A120072
:0C1DD4002A0EF66E000EF76E000EF86E80
:101DE00000010900F550D86F0900F550D96F03E1E3
:101DF000D86701D03DD00900F550D36F0900F550E8
:101E0000D46F0900F550D56F09000900F550E96E4F
:101E10000900F550EA6E090009000900F550D66F77
:101E20000900F550D76F09000900F6CFDAF0F7CFB7
:101E3000DBF0F8CFDCF0D3C0F6FFD4C0F7FFD5C09D
:101E4000F8FF0001D65302E1D75307E00900F5502F
:101E5000EE6ED607F8E2D707F9D7DAC0F6FFDBC097
:101E6000F7FFDCC0F8FF0001D807000ED95BBFD731
:021E700012005E
:0E1E7200D9CFE6FFDACFE6FFE1CFD9FFE2CF0E
:101E8000DAFFAC6AAB6AFD0EDBA005D0AC88DBA440
:101E900004D0AC8E02D0DBB8AC84DBA202D0AC8C18
:101EA000AB8CDBA602D0AB8801D0AB8ADBAC02D016
:101EB0009D8A01D09D9ADBAE02D09D8801D09D986D
:101EC000FB0EDB50AF6EFC0EDBCF15F015C014F02F
:101ED000156A1450B06EAC8AAB8EE552E5CFDAFFCE
:061EE000E7CFD9FF12005C
:0A1EE600D9CFE6FFDACFE6FFE1CF27
:101EF000D9FFE2CFDAFFE652F20E0001DD17ABACFC
:101F000003D0DD91ABB0DD81ABB4DD85ABB2DD8755
:101F1000AE50DF6EDF50E552E552E5CFDAFFE7CF96
:041F2000D9FF1200D3
:0C1F2400D9CFE6FFDACFE6FFE1CFD9FF0E
:101F3000E2CFDAFFE652E652D650DF6E010ED7CF7F
:101F4000DBFFDECF14F0DDCF15F014C0F3FF15C0BA
:101F5000F4FFE552E552E552E5CFDAFFE7CFD9FFCE
:021F600012006D
:0E1F6200D9CFE6FFDACFE6FFE1CFD9FFE2CF1D
:101F7000DAFFE652E652FC0EDBCFDEFFDBCFDDFF01
:101F8000010EDB50D76EDF50D66EE552E552E552BA
:0A1F9000E5CFDAFFE7CFD9FF12001A
:061F9A00D9CFE6FFDACF0B
:101FA000E6FFE1CFD9FFE2CFDAFFFD0EDB507F0B7A
:101FB000D56ED76AD66AF294FD0EDBAE02D0F28AF5
:101FC00001D0F29AD58EE552E5CFDAFFE7CFD9FFFF
:021FD0001200FD
:0E1FD200FF0EE350286EEF0E01D0F30EE76E07
:101FE000E72EF0EF0FF00C0E276EE76AE72EF6EF04
:101FF0000FF0272EF5EF0FF0282EEEEF0FF0120066
:1020000010EE80F020EE80F0F86A019CEAEC0EF011
:0C20100020EC10F095EC03F0FBD7120060
:04201C00FF0EE35080
:10202000E84E1200000000D000D000D0E82EFAD711
:0220300012009C
:0E20320000EE00F00F0EEE6AEA62FDD712001B
:0220400012008C
:0E204200000000010204081020408000000091
:05205000000000000487
:020000040030CA
:0100010002FC
:010002001EDF
:010003001EDE
:010005008179
:010006008178
:00000001FF
