:020000040000FA
:0600000035EF0CF01200C8
:06002A000100881800002F
:08003000C000000020000000E8
:08003800D9CFE6FFE1CFD9FFAB
:10004000FE0EDB500001C211C26F806EE552E7CF99
:10005000D9FF1200D9CFE6FFE1CFD9FFFE0EDB2892
:10006000E86C0001C215C26F806EE552E7CFD9FF80
:100070001200D9CFE6FFE1CFD9FFFE0EDB50000121
:10008000C311C36F816EE552E7CFD9FF1200D9CFFC
:10009000E6FFE1CFD9FFFE0EDB28E86C0001C315B7
:1000A000C36F816EE552E7CFD9FF12000000000058
:1000B0000000000000000000000000000000000040
:1000C000000000D01200D9CFE6FFE1CFD9FF030E28
:1000D000E126010EF36E020EF3CFDBFF020EDB50C2
:1000E00053E0C6C0E6FFA8DFE552640EE66E0EECF4
:1000F0000CF0E552640EE66E0EEC0CF0E552640E68
:10010000E66E0EEC0CF0E552640EE66E0EEC0CF0B2
:10011000E552FE0EDB50000828E2DE6ADD6ADECF23
:1001200000F0DDCF01F0FE0EDB50000101AE02D089
:10013000D89003D0005C000E015820E2C6C0E6FF54
:1001400089DFE552640EE66E0EEC0CF0E552C6C097
:10015000E6FF72DFE552640EE66E0EEC0CF0E5523F
:10016000DF2A010EDCE3DB2ADAD7C6C0E6FF72DF46
:10017000E5520A0EE66E0EEC0CF0E552FD0EDB5079
:10018000ADE1020EDB6AAAD7030EE15C02E2E16A8E
:10019000E552E16EE552E7CFD9FF1200D9CFE6FF75
:1001A000E1CFD9FFFE0EDB500001C411C46F826E97
:1001B000E552E7CFD9FF1200D9CFE6FFE1CFD9FF53
:1001C000FE0EDB28E86C0001C415C46F826EE55298
:1001D000E7CFD9FF12000001CD510AE1C2B208D029
:1001E000C3CFD0F0C4CFD1F0FF0ED017030ED1177C
:1001F000CD0511E1C2B20BD0C3CFD2F0C4CFD3F042
:10020000FF0ED215C06F030ED315C16F04D0D2C03C
:10021000C0F0D3C0C1F0CE2B000ECF233F0ED8804C
:10022000CE55000ECF5510E2CE6BCF6BCD5106E10F
:10023000010ECD6FC294C296C28804D0CD6BC29419
:10024000C296C298C29AC282D0C0F3FFD1C0F4FF56
:100250001200D9CFE6FFE1CFD9FF050EE12681508C
:10026000100B01E0010EE76E040EE7CFDBFFDE6A44
:10027000DE6ADE6ADD6ADD52DD52DB5026E1815046
:10028000100B01E0010EE76E040EE7CFDBFFDB5041
:100290001AE1D9CFE9FFDACFEAFFEE2A000EEE220B
:1002A000EE22EE22D9CFE9FFDACFEAFFD880E80EBE
:1002B000EE54030EEE54000EEE54000EEE54DFE248
:1002C000010EF36E03D0F36A01D0F36AF46A050EEF
:1002D000E15C02E2E16AE552E16EE552E7CFD9FF67
:1002E0001200D9CFE6FFE1CFD9FF050EE1268150FC
:1002F000200B01E0010EE76E040EE7CFDBFF0001EB
:10030000010ED41905E1D55103E1040EDB5030E0B4
:10031000DE6ADE6ADE6ADD6ADD52DD528150200B64
:1003200001E0010EE76E040EE7CFDBFFDB501DE1BD
:10033000D9CFE9FFDACFEAFFEE2A000EEE22EE2255
:10034000EE22D9CFE9FFDACFEAFFD880E80EEE54EB
:10035000030EEE54000EEE54000EEE54DFE2010EDA
:100360000001D46FD56BF36E04D00001D46BD56B54
:10037000F36AF46A050EE15C02E2E16AE552E16EBD
:10038000E552E7CFD9FF1200D9CFE6FFE1CFD9FF81
:10039000020EE1268150200B01E0010EDF6E82503B
:1003A000010BE76E010EE7CFDBFFDF5003E0010E2C
:1003B000DB5003E0010EF36E01D0F36AF46A020E23
:1003C000E15C02E2E16AE552E16EE552E7CFD9FF76
:1003D0001200D9CFE6FFE1CFD9FF030EE1260001DD
:1003E000010ED81914E1D95112E10A0E226E236AC6
:1003F000FD0EDBCF27F0FE0EDBCF28F02EEC0AF04F
:1004000020C0D6F021C0D7F00001D86BD96B330ED5
:10041000046E056E730E066E3F0E076ED6C022F098
:10042000D7C023F0C2EC08F021C008F022C009F0C8
:1004300023C00AF024C00BF021C026F022C027F010
:1004400023C028F024C029F004C021F005C022F008
:1004500006C023F007C024F0C1EC09F021C000F071
:1004600022C001F023C002F024C003F0CD0E106EB4
:10047000CC0E116E4C0E126E3D0E136EFD0EDBCFC8
:1004800018F0FE0EDBCF19F00A0E1902F3CF19F0A7
:100490001802F3CF18F0F4501926F3CF22F019C048
:1004A00023F0C2EC08F021C014F022C015F023C0E4
:1004B00016F024C017F021C026F022C027F023C078
:1004C00028F024C029F010C021F011C022F012C081
:1004D00023F013C024F0C1EC09F021C00CF022C0BD
:1004E0000DF023C00EF024C00FF021C026F022C072
:1004F00027F023C028F024C029F000C021F001C05B
:1005000022F002C023F003C024F0D8EC08F04CEC39
:100510000AF022C0D6F023C0D7F08150200B01E0B2
:10052000010EDF6EDF5005E1010E0001DE6FDF6BB3
:1005300015D00001010EDE1909E1DF5107E1D651A6
:10054000DC5DD751DD590AE2DE6B07D0DA51D65DAA
:10055000DB51D75903E2010EDE6FDF6BDEC0F3FF24
:10056000DFC0F4FF030EE15C02E2E16AE552E16EF6
:10057000E552E7CFD9FF1200D9CFE6FFE1CFD9FF8F
:10058000E6528150080B01E0010EDF6EDF5003E1FF
:10059000010EF36E01D0F36AF46AE552E552E7CF3B
:1005A000D9FF1200D9CFE6FFE1CFD9FFFD0EDB0462
:1005B0002AE1FE0EDB50040A1AE0070A10E0010AE5
:1005C00006E0030A2CE1C7C0E6FF44DD1FD0C7C028
:1005D000E6FF32DDE552C8C0E6FF3CDD1BD0C7C0F8
:1005E000E6FF2ADDE552C8C0E6FF26DD07D0C7C01A
:1005F000E6FF30DDE552C8C0E6FF2CDDE552C9C09C
:10060000E6FF28DD0BD0C7C0E6FF16DDE552C8C007
:10061000E6FF12DDE552C9C0E6FF0EDDE552E55208
:10062000E7CFD9FF1200D9CFE6FFE1CFD9FFFE0E09
:10063000DB0404E1CAC0E6FFB1DD03D0CAC0E6FFB7
:10064000BBDDE552E552E7CFD9FF1200D9CFE6FF77
:10065000E1CFD9FFFE0EDB5004E1CBC0E6FFACDDFD
:1006600003D0CBC0E6FF9ADDE552E552E7CFD9FFD4
:100670001200D9CFE6FFE1CFD9FFFE0EDB5004E137
:10068000C9C0E6FF8BDD03D0C9C0E6FF95DDE552AA
:10069000E552E7CFD9FF1200D9CFE6FFE1CFD9FF6E
:1006A000A69EA69CA684FE0EDB50A96EFD0EDB5016
:1006B000A86E550EA76EAA0EA76EA682A1A8FED799
:1006C000A198F292E552E7CFD9FF1200D9CFE6FF09
:1006D000E1CFD9FFE652A69EA69CFE0EDB50A96E86
:1006E000A680A850DF6EDF50E552E552E7CFD9FF74
:1006F0001200D9CFE6FFE1CFD9FF360EE126010E79
:10070000F36E180EF3CFDBFF1B0EDB6A1C0EDB6AE9
:10071000C80EF36E1D0EF3CFDBFF410EF36E1E0EFF
:10072000F3CFDBFF1F0EDB6A200EDB6AF00EF36EE9
:10073000210EF3CFDBFF410EF36E220EF3CFDBFF72
:10074000230EDB6A2C0EDB6A2D0EDB6A7A0EF36E4B
:100750002E0EF3CFDBFF440EF36E2F0EF3CFDBFF35
:10076000300EDB6A310EDB6A320EDB6A330EDB6A77
:10077000340EDB6A350EDB6A0F0EDB6A130EDB6AA2
:10078000DF6A0001C36B160EDB6A170EDB6AE10E2F
:10079000926E1E0EC26F806EC294C296C298C29AAA
:1007A000C280C292C190C182C184C186C090C08201
:1007B000C094C096C098C08AC08E93688F0E946E05
:1007C000170EE66EF2EC0BF0E552000EE66EE66AEE
:1007D000D6EC0BF0E552E552640EE66E0EEC0CF032
:1007E000E552640EE66E0EEC0CF0E552640EE66E19
:1007F0000EEC0CF0E552640EE66E0EEC0CF0E552D9
:10080000020EE66E27DCE552640EE66E0EEC0CF08E
:10081000E552640EE66E0EEC0CF0E552640EE66EE8
:100820000EEC0CF0E552640EE66E0EEC0CF0E552A8
:10083000020EE66E1CEC00F0E552640EE66E0EEC65
:100840000CF0E552640EE66E0EEC0CF0E552640E10
:10085000E66E0EEC0CF0E552640EE66E0EEC0CF05B
:10086000E552040EE66E2AEC00F0E552640EE66EE8
:100870000EEC0CF0E552640EE66E0EEC0CF0E55258
:10088000640EE66E0EEC0CF0E552640EE66E0EECB5
:100890000CF0E552040EE66E1CEC00F0E552640E1E
:1008A000E66E0EEC0CF0E552640EE66E0EEC0CF00B
:1008B000E552640EE66E0EEC0CF0E552640EE66E48
:1008C0000EEC0CF0E552080EE66E2AEC00F0E55254
:1008D000640EE66E0EEC0CF0E552640EE66E0EEC65
:1008E0000CF0E552640EE66E0EEC0CF0E552640E70
:1008F000E66E0EEC0CF0E552080EE66E1CEC00F015
:10090000E552640EE66E0EEC0CF0E552640EE66EF7
:100910000EEC0CF0E552640EE66E0EEC0CF0E552B7
:10092000640EE66E0EEC0CF0E552100EE66E2AEC4C
:1009300000F0E552640EE66E0EEC0CF0E552640E2B
:10094000E66E0EEC0CF0E552640EE66E0EEC0CF06A
:10095000E552640EE66E0EEC0CF0E552100EE66EFB
:100960001CEC00F0E552640EE66E0EEC0CF0E55265
:10097000640EE66E0EEC0CF0E552640EE66E0EECC4
:100980000CF0E552640EE66E0EEC0CF0E552010E32
:10099000E66E49DEE552640EE66E0EEC0CF0E552B2
:1009A000640EE66E0EEC0CF0E552640EE66E0EEC94
:1009B0000CF0E552640EE66E0EEC0CF0E552E66AC1
:1009C00032DEE552640EE66E0EEC0CF0E552640E7B
:1009D000E66E0EEC0CF0E552640EE66E0EEC0CF0DA
:1009E000E552640EE66E0EEC0CF0E552010EE66E7A
:1009F0002DDEE552640EE66E0EEC0CF0E552640E50
:100A0000E66E0EEC0CF0E552640EE66E0EEC0CF0A9
:100A1000E552640EE66E0EEC0CF0E552E66A16DE68
:100A2000E552110EDB6ADBCFE6FF50DEE552E76EE2
:100A3000100EE7CFDBFFDB50E76E180EE7CFDBFFD2
:100A4000DBCF00F0040EE76E0018E8AE02D00034F1
:100A500003D0E750D880005405E2040EF36E180E60
:100A6000F3CFDBFF180EDBCF00F0010EE76E0018AE
:100A7000E8AE02D0E73402D0E750005C05E2010E98
:100A8000F36E180EF3CFDBFFE66A020EE66E63EC40
:100A900000F0E552E552EBEC00F0190EF3CFDBFF6E
:100AA0001A0EF4CFDBFF190EDBCF22F01A0EDBCFCC
:100AB00023F0C2EC08F021C000F022C001F023C0F6
:100AC00002F024C003F02C0EDBCF08F02D0EDBCF9C
:100AD00009F02E0EDBCF0AF02F0EDBCF0BF0190E34
:100AE000DBCF10F01A0EDBCF11F0000ED8801056BD
:100AF000040E115610C022F011C023F0C2EC08F011
:100B000021C00CF022C00DF023C00EF024C00FF065
:100B100021C026F022C027F023C028F024C029F0ED
:100B200008C021F009C022F00AC023F00BC024F055
:100B30006EEC09F021C004F022C005F023C006F0DD
:100B400024C007F021C026F022C027F023C028F0DF
:100B500024C029F000C021F001C022F002C023F01F
:100B600003C024F0C1EC09F0280E21C0DBFF290EE0
:100B700022C0DBFF2A0E23C0DBFF2B0E24C0DBFFCD
:100B8000280EDBCF08F0290EDBCF09F02A0EDBCFD1
:100B90000AF02B0EDBCF0BF0266A276AC80E286EF0
:100BA000420E296E08C021F009C022F00AC023F0CD
:100BB0000BC024F0D7EC08F021C004F022C005F0EF
:100BC00023C006F024C007F03F0E266E350E276EB8
:100BD000260E286E400E296EC1EC09F021C000F0EF
:100BE00022C001F023C002F024C003F0C70E266E1D
:100BF0004B0E276E370E286E3F0E296EC1EC09F0A2
:100C0000240E21C0DBFF250E22C0DBFF260E23C0F1
:100C1000DBFF270E24C0DBFF240EDBCF00F0250E08
:100C2000DBCF01F0260EDBCF02F0270EDBCF03F087
:100C30001B0EDBCF04F01C0EDBCF05F01D0EDBCF4F
:100C400006F01E0EDBCF07F004C026F005C027F02B
:100C500006C028F007C029F000C021F001C022F032
:100C600002C023F003C024F07BEC0AF0010A04E187
:100C7000010EE66ED8DCE552240EDBCF00F0250E27
:100C8000DBCF01F0260EDBCF02F0270EDBCF03F027
:100C90001B0EDBCF08F01C0EDBCF09F01D0EDBCFE7
:100CA0000AF01E0EDBCF0BF0266A276A800E286E34
:100CB0003F0E296E08C021F009C022F00AC023F0BF
:100CC0000BC024F0D7EC08F021C004F022C005F0DE
:100CD00023C006F024C007F021C026F022C027F070
:100CE00023C028F024C029F000C021F001C022F068
:100CF00002C023F003C024F084EC0AF0010A03E1EF
:100D0000E66A91DCE552240EDBCF00F0250EDBCF46
:100D100001F0260EDBCF02F0270EDBCF03F01F0E13
:100D2000DBCF04F0200EDBCF05F0210EDBCF06F089
:100D3000220EDBCF07F004C026F005C027F006C066
:100D400028F007C029F000C021F001C022F002C045
:100D500023F003C024F07BEC0AF0010A05E1010E48
:100D6000F36E230EF3CFDBFF240EDBCF00F0250E56
:100D7000DBCF01F0260EDBCF02F0270EDBCF03F036
:100D80001F0EDBCF08F0200EDBCF09F0210EDBCFEA
:100D90000AF0220EDBCF0BF0266A276AA00E286E1F
:100DA000400E296E08C021F009C022F00AC023F0CD
:100DB0000BC024F0D7EC08F021C004F022C005F0ED
:100DC00023C006F024C007F021C026F022C027F07F
:100DD00023C028F024C029F000C021F001C022F077
:100DE00002C023F003C024F084EC0AF0010A02E1FF
:100DF000230EDB6AB7EC0BF0140EF3CFDBFF150EFE
:100E0000F4CFDBFF29EC01F0F3CF00F0F4CF01F0D9
:100E1000F350F41019E1D950140FE96EDACFEAFF5C
:100E20004B0ED880EE544C0EED5443E2000EE66EAD
:100E3000E66AD6EC0BF0E552E552E66A180EDBCF17
:100E4000E6FFD2EC02F033D0010EF36E320EF3CF98
:100E5000DBFF330EDB6AD950140FE96EDACFEAFFFD
:100E6000E10ED880EE54E40EED5423E2D950300F59
:100E7000E96EDACFEAFF010EEE180DE1ED500BE15D
:100E8000300EDB6A310EDB6A010EF36E340EF3CFE7
:100E9000DBFF350E06D0010EF36E300EF3CFDBFF15
:100EA000310EDB6A000EE66EE66AD6EC0BF0E55218
:100EB000E552D950300FE96EDACFEAFFEE50ED106F
:100EC00059E1D950320FE96EDACFEAFF010EEE1880
:100ED00051E1ED504FE129EC01F0F3CF00F0F4CFF8
:100EE00001F0F350F41046E1320EDB6A330EDB6A98
:100EF000D950340FE96EDACFEAFFEE50ED1036E14B
:100F0000180EDB2ADBCF00F0040EE76E0018E8AE07
:100F100002D0003403D0E750D880005405E2010E1F
:100F2000F36E180EF3CFDBFF110EDB6A180EDB50E9
:100F3000E76E100EE7CFDBFFDBCFE6FF110EDBCF56
:100F4000E6FF4CEC03F0E552E552010EE66E180E9A
:100F5000DBCFE6FFD2EC02F0E552E552000EE66E82
:100F6000E66AD6EC0BF0E552E55204D0340EDB6AAB
:100F7000350EDB6AD950300FE96EDACFEAFF010E89
:100F8000EE1812E1ED5010E1E66A39EC03F0E5529B
:100F9000E66A180EDBCFE6FFD2EC02F0E552E5522E
:100FA000E66A26EC03F0E552C0C0E6FFC1C0E6FFEA
:100FB000E9EC01F0E552E552F3CF00F0F4CF01F097
:100FC000F350F41001E17DD0230EDB5001E079D025
:100FD000D950300FE96EDACFEAFFEE50ED1071E133
:100FE000010EE66E180EDBCFE6FFD2EC02F0E55202
:100FF000E552E66A39EC03F0E552180EDB50040ABC
:101000005BE0070A3CE0010A1EE0030A73E1140EEC
:10101000DBCF22F0150EDBCF23F0C2EC08F021C0AD
:1010200000F022C001F023C002F024C003F0266AC1
:10103000960E276E980E286E450E296E84EC0AF0E7
:10104000010A3AE037D0140EDBCF22F0150EDBCFC9
:1010500023F0C2EC08F021C000F022C001F023C050
:1010600002F024C003F0266A960E276E180E286E32
:10107000460E296E84EC0AF0010A1CE11DD0140E04
:10108000DBCF22F0150EDBCF23F0C2EC08F021C03D
:1010900000F022C001F023C002F024C003F0266A51
:1010A000E10E276E640E286E460E296E84EC0AF05F
:1010B000010A02E0E66A02D0010EE66E26EC03F0B9
:1010C00018D0E66A180EDBCFE6FFD2EC02F0E5524C
:1010D000E552E66A26EC03F0E552D950300FE96E8E
:1010E000DACFEAFFEE50ED1005E1010EE66E39ECC5
:1010F00003F0E552230EDB0401E0CDD4D950140FE8
:10110000E96EDACFEAFF250ED880EE54260EED54B4
:101110001FE2010EE66EE66ED2EC02F0E552E552F9
:10112000010EE66E020EE66ED2EC02F0E552E552DA
:10113000010EE66E030EE66ED2EC02F0E552E552C9
:10114000010EE66E040EE66ED2EC02F0E552E552B8
:10115000D950140FE96EDACFEAFF4B0ED880EE5467
:101160004C0EED5401E397D4000EE66EE66AD6EC21
:101170000BF0E552E552E66A180EDBCFE6FFD2EC43
:0411800002F087D41E
:0C1184001B9E08D01B9E23AE05D0226CE1
:10119000231EE86A23221B8E23C01DF022C01CF0F0
:1011A0002D6A2C6A8E0E1E6E1F6AFEEF0AF0297ED3
:1011B0001B6A3AEC0BF052EC0BF01BB6E2EF0AF0B4
:1011C0001BA20AD01BAA03D01BBEE2EF0AF01BA48D
:1011D000EEEF0AF0EBEF0AF01BAA05D01BACEEEF26
:1011E0000AF0EBEF0AF01BA00AD01BA808D01BBE28
:1011F00004D01BA402D0F7EF0AF0FBEF0AF02C6A30
:101200001F6A2950245C2B6E10E321C02DF022C0F0
:101210001CF023C01DF024C02AF026C021F027C0F6
:1012200022F028C023F01B3A09D026C02DF027C099
:101230001CF028C01DF029C02AF02B6C1B9E1BBC83
:101240001B8E2AC01EF01BB02AEF0BF01A0E2B606B
:101250002AEF0BF01E6A246A1BA408D0216C221E00
:10126000231E241EE86A2222232224221BAC08D03B
:101270002D6C1C1E1D1E1E1EE86A1C221D221E2215
:10128000206A2B5207E024342332223221322032CA
:101290002B2EF9D721502D2622501C2223501D22FF
:1012A00024501E2220C02CF01B9E1EAE0BD02C6C96
:1012B0002D1E1C1E1D1E1E1EE86A2D221C221D2214
:1012C0001E221B8E1EA006D0D8801D321C322D324D
:1012D0002C322A2A2AC01EF0FEEF0AF01B6A3AECD2
:1012E0000BF052EC0BF01BB6E2EF0AF01BA205D09C
:1012F0001BBAE2EF0AF0E9EF0AF01BBAF5EF0AF0C9
:101300001BA005D01BB8E2EF0AF0F5EF0AF01BB8FE
:10131000E9EF0AF01F6A7F0E24241E6EE86A1F227E
:1013200029501E5EE86A1F5A1A0E2A6E246A2C6A19
:101330002D6A1C6A1D6A2650215E2750225A2850A9
:10134000235A000E245A09E726502126275022222C
:1013500028502322000E242201D02C8AD890213636
:10136000223623362436D8902C362D361C361D36A0
:101370002A2EE1D7235022102110D8A42C8AFEEF68
:101380000AF01B6A3AEC0BF052EC0BF01BB6E2EFE2
:101390000AF01BA205D01BB8E2EF0AF0E9EF0AF051
:1013A0001BAA05D01BB0E2EF0AF0E9EF0AF01BB070
:1013B00002D01BA802D0F5EF0AF01F6A295024249E
:1013C0001E6EE86A1F227E0E1E5EE86A1F5A2C6A95
:1013D0002D6A1C6A1D6A28502302F4CF1DF0F3CF3A
:1013E0001CF027502302F3502D26F4501C22000E2F
:1013F0001D2228502202F3502D26F4501C22000EEC
:101400001D2226502302F3502C26F4502D22000ECC
:101410001C221D2227502202F3502C26F4502D228C
:10142000000E1C221D2228502102F3502C26F450BD
:101430002D22000E1C221D2226502202F4502C26A2
:10144000000E2D221C221D2227502102F4502C2692
:10145000000E2D221C221D22FEEF0AF022C02CF0CD
:1014600022502702F4CF21F0F3CF20F0235028029E
:10147000F4CF23F0F3CF22F02702F3502126F450CB
:101480002222E86A23222C502802F3502126F4500D
:101490002222E86A2322000C1B6A3AEC0BF01BB6EE
:1014A00056EF0AF01BA20ED01BB405D07F0E236EA0
:1014B000FF0E226E1FD0800E236E226A1BD0236A7D
:1014C000226A18D01BB0FBD78F0E2460EDD77E0E9A
:1014D0002464F5D78E0E245C05E0D89023322232A6
:1014E000242AF8D71BA406D0226C231EE86A2322E4
:1014F00023AEE5D712008DEC0AF01BB6000C1BB032
:10150000000C1BB4000C010C8DEC0AF01BB6000C97
:101510001BB0000C1BA4000C010C1B6A3AEC0BF076
:1015200052EC0BF01BB612001BAE08D01BA004D06F
:101530001BA802D01B8012001B9012002950245CB3
:101540000BE12850235C08E12750225C05E126507E
:10155000215C02E11B801200D8A002D01B8E10D0AB
:10156000245029C024F0296E235028C023F0286E6F
:10157000225027C022F0276E215026C021F0266E6F
:101580002950245C10E0FF0F09E01B901BB403D02E
:101590001BAE1B8412001BAE1B941200292AD8908C
:1015A0002832273226322650215E2750225A2850D0
:1015B000235A23BEEAD7D890213622362336242E4A
:1015C000F8D7C8D77F0E246EFF0E236E226E216ED1
:1015D00012007F0E1BBEFF0E246E02D07F0E246E03
:1015E000800E236E226A216AF3D71BAE04D0800ED0
:1015F000246E236AF7D7246A236AF4D71D501C107F
:101600002D102C10F8E01FBEF0D71DBE0CD01E50C0
:101610001F10EBE0D8902C362D361C361D361E06DA
:10162000D8A01F06F2D71F50D4E11E28D2E02CAE5E
:1016300011D07F0E2C1402E12DA00CD02D2AE86AC7
:101640001C221D2207E3D8801D321C322D321E2A97
:101650001E28BFE01E50C9E02DC021F01CC022F0A2
:101660001D34236E1E30246E2332249E1BBE248E16
:10167000E8EF0AF02336243602E31B841B7E06E1E2
:101680001B80246A236A226A216A1200242803E04C
:10169000D88023321200D890233202E11B8212003C
:1016A0001B8612002836293602E31B8C1B7E06E1BE
:1016B0001B88296A286A276A266A1200292803E0FB
:1016C000D88028321200D8902832EAE11B8A120012
:1016D0002A0EF66E000EF76E000EF86E000109007D
:1016E000F550E56F0900F550E66F03E1E56701D0BD
:1016F0003DD00900F550E06F0900F550E16F090099
:10170000F550E26F09000900F550E96E0900F55047
:10171000EA6E090009000900F550E36F0900F55071
:10172000E46F09000900F6CFE7F0F7CFE8F0F8CF53
:10173000E9F0E0C0F6FFE1C0F7FFE2C0F8FF00010A
:10174000E35302E1E45307E00900F550EE6EE307CE
:10175000F8E2E407F9D7E7C0F6FFE8C0F7FFE9C011
:0E176000F8FF0001E507000EE65BBFD71200A0
:02176E00D9CFD1
:10177000E6FFDACFE6FFE1CFD9FFE2CFDAFFE652AC
:10178000E652D650DF6E010ED7CFDBFFDECF00F082
:10179000DDCF01F000C0F3FF01C0F4FFE552E552D8
:0C17A000E552E5CFDAFFE7CFD9FF1200D9
:0417AC00D9CFE6FFAC
:1017B000DACFE6FFE1CFD9FFE2CFDAFFE652E65219
:1017C000FC0EDBCFDEFFDBCFDDFF010EDB50D76E83
:1017D000DF50D66EE552E552E552E5CFDAFFE7CFAE
:0417E000D9FF12001B
:0C17E400D9CFE6FFDACFE6FFE1CFD9FF56
:1017F000E2CFDAFFFD0EDB507F0BD56ED76AD66ADB
:10180000F294FD0EDBAE02D0F28A01D0F29AD58EB0
:0C181000E552E5CFDAFFE7CFD9FF120068
:04181C00FF0EE35088
:101820002F6EEF0E01D0F30EE76EE72E15EF0CF0E2
:101830000C0E2E6EE76AE72E1BEF0CF02E2E1AEF21
:0A1840000CF02F2E13EF0CF0120035
:06184A00000EF36E00EE3B
:1018500000F0030E01D81200EA6002D0EE6AFCD755
:0A186000F350E9601200EE6AFCD7B5
:06186A0010EE80F020EEFC
:1018700080F0F86A1B9C68EC0BF043EC0CF079EC00
:0618800003F0FBD712008B
:0218860012004E
:08188800000000000001020451
:101890000810204080000000000400040000000048
:0818A00001003309700900008A
:020000040030CA
:0100010002FC
:010002001EDF
:010003001EDE
:010005008179
:0100060001F8
:00000001FF
